:020000040800F2
:2000000000500020B11D00081D1B00081F1B0008211B0008231B0008251B00080000000046
:20002000000000000000000000000000271B0008291B0008000000002B1B00082D1B00088C
:20004000F91D0008F91D0008F91D0008F91D0008F91D0008F91D0008F91D0008F91D0008B0
:20006000F91D0008F91D0008F91D0008F91D0008F91D0008F91D0008F91D0008F91D000890
:20008000F91D0008F91D0008F91D0008F91D0008F91D0008F91D0008F91D0008F91D000870
:2000A000F91D0008F91D0008F91D0008F91D0008F91D0008391B0008F91D0008F91D000812
:2000C000F91D0008F91D0008F91D0008F91D0008F91D0008F91D0008F91D0008F91D000830
:2000E000F91D0008F91D0008F91D00080000000000000000000000000000000000000000A6
:2001000000000000000000005FF808F110B5054C237833B9044B13B10448AFF3008001234D
:20012000237010BD70000020000000007426000808B5034B1BB103490348AFF3008008BDD8
:20014000000000007400002074260008034613F8012B002AFBD1181A0138704710B50446C2
:200160000E4B18784FF47A73B3FBF0F30C4A1068B0FBF3F000F0A0F868B90F2C01D901209A
:200180000AE0002221464FF0FF3000F055F8034B5C60002000E0012010BD00BF000000206A
:2001A0000800002008B5074A136843F010031360032000F02FF80020FFF7D0FF01F05EFC6B
:2001C000002008BD00200240034A1168034B1B780B441360704700BFA40000200000002015
:2001E000014B1868704700BFA400002038B50446FFF7F6FF0546B4F1FF3F02D0044B1B78F5
:200200001C44FFF7EDFF401BA042FAD338BD00BF00000020074AD36823F4E0631B041B0C92
:20022000000200F4E060184340F0BF6040F40030D060704700ED00E030B4174BDB68C3F387
:200240000223C3F10704042C28BF04241D1D062D18D9033B4FF0FF3505FA04F421EA040165
:20026000994005FA03F322EA0303194300280BDB0901C9B200F1604000F5614080F80013FD
:2002800030BC70470023E5E700F00F000901C9B2024B1954F4E700BF00ED00E014ED00E046
:2002A00000F01F02400901239340024A42F82030704700BF00E100E00138B0F1807F0AD22B
:2002C000064B5860064AF02182F823100020986007221A6070470120704700BF10E000E02E
:2002E00000ED00E0042805D0054A136823F0040313607047024A136843F0040313607047F7
:2003000010E000E0704708B5FFF7FCFF08BD0000F0B482B000263546A1E0002C59D0012C69
:2003200000D1CE68FF2B68D88446FF2B68D8AC00DCF800200F27A74022EA070206FA04F44E
:200340002243CCF800204A6812F0805F00F086805E4A946944F001049461926902F0010208
:200360000192019AAC08A71C594A52F8272005F00307BF004FF00F0C0CFA07FC22EA0C0C5F
:20038000544A904242D002F5806290427FD002F5806290427DD002F58062904234D0042214
:2003A00035E04D4FBC4214D00BD94C4FBC4210D007F58037BC420CD0A7F58017BC42B1D10D
:2003C00007E0A7F58017BC4203D007F58037BC42A8D18C687CB1012C08D042610826A1E789
:2003E000CE6808369EE7CE680C369BE70261082698E7002696E7042694E700F1040C94E736
:20040000A5F10804A40093E7032200E00022BA4042EA0C0202342E4F47F824204A6812F4D3
:20042000803F38D02E4C22681A4322604A6812F4003F36D02A4C62681A4362604A6812F4FE
:20044000801F34D0264CA2681A43A2604A6812F4001F32D0224CE2681343E36001350F2D82
:2004600031D80122AA400B6813409A42F6D14C68122CB8D095D8022CB2D07FF64EAF032CC5
:20048000B7D0112C7FF44EAFCE6804364AE70122BDE70222BBE7124C226822EA030222607F
:2004A000C4E70F4C626822EA03026260C6E70C4CA26822EA0302A260C8E7094CE26822EA1D
:2004C0000303E360CAE702B0F0BC70470010024000000140000801400000211000003110BF
:2004E000000401408368194201D1002070470120704712B9090401617047016170470000E6
:2005000082B0084B1B68084AA2FB03235B0A00FB03F0019000BF019B5A1E0192002BF9D17F
:2005200002B0704708000020D34D621070B582B00446036813F0010F2CD0AB4B5B6803F0D1
:200540000C03042B1DD0A84B5B6803F00C03082B12D06368B3F5803F41D0002B55D103F11B
:20056000804303F504331A6822F480321A601A6822F480221A6037E09B4B5B6813F4803F8B
:20058000E7D0994B1B6813F4003F03D06368002B00F0AE81236813F0020F76D0924B5B688A
:2005A00013F00C0F5FD0904B5B6803F00C03082B54D02369002B00F08A808C4B01221A60D2
:2005C000FFF70EFE0546884B1B6813F0020F75D1FFF706FE401B0228F5D903208BE1824A76
:2005E000136843F480331360636843B3FFF7F8FD05467D4B1B6813F4003FCBD1FFF7F0FD1C
:20060000401B6428F5D9032075E1B3F5A02F09D0754B1A6822F480321A601A6822F480229E
:200620001A60E1E703F18043A3F53C331A6842F480221A601A6842F480321A60D4E7FFF751
:20064000CFFD0546684B1B6813F4003FA2D0FFF7C7FD401B6428F5D903204CE1624B5B6866
:2006600013F4803FA5D1604B1B6813F0020F04D02369012B01D001203DE15B4A136823F02D
:20068000F803616943EAC1031360236813F0080F32D0A369002B5BD0554B01221A60FFF7F5
:2006A0009FFD0546504B5B6A13F0020F21D1FFF797FD401B0228F5D903201CE14A4A1368E1
:2006C00023F0F803616943EAC1031360DDE7474B00221A60FFF784FD0546434B1B6813F016
:2006E000020FD2D0FFF77CFD401B0228F5D9032001E10120FFF704FF236813F0040F00F0D5
:200700009780394BDB6913F0805F33D1364BDA6942F08052DA61DB6903F080530193019BD7
:200720000125344B1B6813F4807F25D0E368012B36D0002B4CD103F1804303F504331A6A67
:2007400022F001021A621A6A22F004021A622CE0274B00221A60FFF743FD0546224B5B6A23
:2007600013F0020FC8D0FFF73BFD401B0228F5D90320C0E00025D4E71E4A136843F480739C
:200780001360FFF72DFD06461A4B1B6813F4807FCCD1FFF725FD801B6428F5D90320AAE035
:2007A000114A136A43F001031362E36873B3FFF717FD06460C4B1B6A13F0020F37D1FFF700
:2007C0000FFD801B41F288339842F3D9032092E0052B11D0044B1A6A22F001021A621A6A50
:2007E00022F004021A62E0E700100240000042428004424200700040414B1A6A42F00402C8
:200800001A621A6A42F001021A62CEE7FFF7E8FC06463B4B1B6A13F0020F08D0FFF7E0FC83
:20082000801B41F288339842F3D9032063E0E5B9E369002B5ED0324A526802F00C02082A78
:200840005BD0022B17D02F4B00221A60FFF7C8FC04462B4B1B6813F0007F47D0FFF7C0FCFB
:20086000001B0228F5D9032045E0254AD36923F08053D361DCE7234B00221A60FFF7B0FCE9
:2008800005461F4B1B6813F0007F06D0FFF7A8FC401B0228F5D903202DE0236AB3F5803FB7
:2008A0001AD017494B6823F47413226A606A024313434B60134B01221A60FFF791FC044639
:2008C0000F4B1B6813F0007F0ED1FFF789FC001B0228F5D903200EE0094A536823F40033E3
:2008E000A1680B435360DCE7002004E0002002E0012000E0002002B070BD0120FBE700BF63
:20090000001002406000424210B487B0164C94E80F000DF1180C0CE90F00238AADF804300D
:20092000124B5B6803F00C02082A1AD1C3F38342624412F8102C13F4803F05D10C4800FB27
:2009400002F007B010BC7047084B5B68C3F34043634413F8143C074800FB02F0B0FBF3F050
:20096000EFE70448EDE700BF8C2600080010024000093D0000127A00594B1B6803F00703C0
:200980008B420CD2564A136823F007030B431360136803F007038B4201D00120704770B5A0
:2009A000036813F0020F06D04E4A536823F0F0038468234353600C460546036813F0010F69
:2009C00052D04368012B23D0022B28D0454A126812F0020F00F0828042494A6822F00302A4
:2009E00013434B60FFF7FCFB06466B68012B1DD0022B2AD03B4B5B6813F00C0F34D0FFF749
:200A0000EFFB801B41F288339842F3D9032064E0344A126812F4003FDED101205DE0314A91
:200A2000126812F0007FD7D1012056E02D4B5B6803F00C03042B17D0FFF7D2FB801B41F2D8
:200A400088339842F2D9032047E0264B5B6803F00C03082B08D0FFF7C3FB801B41F288336E
:200A60009842F2D9032038E01D4B1B6803F00703A3420CD91A4A136823F00703234313600F
:200A8000136803F00703A34201D0012025E02B6813F0040F06D0134A536823F4E063E968C0
:200AA0000B4353602B6813F0080F07D00D4A536823F46053296943EAC1035360FFF724FF86
:200AC000084B5B68C3F30313074AD35CD840074B18600020FFF742FB002070BD0120FCE72E
:200AE0000020024000100240E026000808000020014B1868704700BF0800002008B5FFF7EF
:200B0000F7FF044B5B68C3F30223034AD35CD84008BD00BF00100240F026000808B5FFF7B7
:200B2000E7FF044B5B68C3F3C223034AD35CD84008BD00BF00100240F026000810B4036A69
:200B4000046A24F001040462846924F0F00444EA021223F00A030B438261036210BC704738
:200B600010B4036A23F0100303628469036A24F4704444EA023223F0A00343EA0113826157
:200B8000036210BC7047836823F0700341F0070119438160704710B4846824F47F4442EA18
:200BA00003230B432343836010BC7047022380F83D300268136843F001031360012380F8C0
:200BC0003D30002070470268D36843F00103D3600268136843F0010313600020704790F8D4
:200BE0003C30012B7DD010B50446012380F83C30022380F83D300268936823F47F4323F09E
:200C0000770393600B68402B57D010D9702B3ED01FD8502B47D0602B32D1CA68496800686E
:200C2000FFF79EFF60212068FFF7ADFF28E0102B4DD008D9202B4FD0302B21D130210068C5
:200C4000FFF7A1FF1CE0DBB900210068FFF79BFF16E0B3F5805F0ED0B3F5005F10D1CB68DF
:200C60004A6889680068FFF796FF2268936843F48043936004E00268936823F00703936013
:200C8000012384F83D30002084F83C0010BDCB684A6889680068FFF77EFF2268936843F039
:200CA00077039360ECE7CA6849680068FFF746FF50212068FFF767FFE2E7CA684968006805
:200CC000FFF73CFF40212068FFF75DFFD8E710210068FFF758FFD3E720210068FFF753FF58
:200CE000CEE7022070477047704770477047704710B5044603681A6912F0020F11D0DA68A0
:200D000012F0020F0DD06FF002021A610123037703689B6913F0030F70D0FFF7E6FF0023A5
:200D2000237723681A6912F0040F12D0DA6812F0040F0ED06FF004021A61022323772368B5
:200D40009B6913F4407F5FD02046FFF7CEFF0023237723681A6912F0080F12D0DA6812F067
:200D6000080F0ED06FF008021A61042323772368DB6913F0030F4ED02046FFF7B6FF0023A3
:200D8000237723681A6912F0100F12D0DA6812F0100F0ED06FF010021A610823237723682B
:200DA000DB6913F4407F3DD02046FFF79EFF0023237723681A6912F0010F03D0DA6812F02F
:200DC000010F36D123681A6912F0800F03D0DA6812F0800F34D123681A6912F0400F03D080
:200DE000DA6812F0400F32D123681A6912F0200F03D0DA6812F0200F30D110BDFFF774FFA1
:200E00002046FFF773FF8AE72046FFF76DFF2046FFF76CFF9BE72046FFF766FF2046FFF765
:200E200065FFACE72046FFF75FFF2046FFF75EFFBDE76FF001021A612046FFF754FFC1E770
:200E40006FF080021A61204600F08DF8C3E76FF040021A612046FFF74AFFC5E76FF02002C3
:200E60001A61204600F07EF8C7E7000003681B4A90420AD0B0F1804F07D0A2F5943290428B
:200E800003D002F58062904203D123F070034A681343124A90420AD0B0F1804F07D0A2F58C
:200EA0009432904203D002F58062904203D123F44073CA68134323F080034A6913430360F4
:200EC0008B68C3620B688362044B984202D00123436170470B690363F9E700BF002C014042
:200EE000A8B110B5044690F83D305BB1022384F83D30211D2068FFF7B9FF012384F83D30FA
:200F0000002010BD80F83C3000F0A2FEEEE70120704790F83C30012B22D030B4012280F832
:200F20003C20022380F83D300468636823F070036360046863680D682B4363600468A36877
:200F400023F08003A3600468A36849680B43A36080F83D20002380F83C30184630BC7047A2
:200F600002207047704770472DE9F84305460268136923F44053C1680B43136183680269BD
:200F80001343426913430168CA6822F4B05222F00C021343CB600268536923F440738169CC
:200FA0000B4353610268594B9A4257D0FFF7A6FD00EB800000EB80006C68A400B0FBF4F4A4
:200FC000534FA7FB043464092601FFF797FD00EB800000EB80006C68A400B0FBF4F9FFF79B
:200FE0008DFD00EB800000EB80006C68A400B0FBF4F4A7FB043464094FF0640808FB1494E9
:2010000024013234A7FB0434640904F0F0043444FFF774FD00EB800000EB80006E68B600D5
:20102000B0FBF6F6FFF76AFD00EB800000EB80006B689B00B0FBF3F0A7FB0030400908FBCC
:2010400010684FEA081808F13208A7FB0837C7F343172B6827449F60BDE8F883FFF75EFD29
:2010600000EB800000EB80006C68A400B0FBF4F4274FA7FB043464092601FFF74FFD00EB7E
:20108000800000EB80006C68A400B0FBF4F9FFF745FD00EB800000EB80006C68A400B0FB24
:2010A000F4F4A7FB043464094FF0640808FB149424013234A7FB0434640904F0F004344479
:2010C000FFF72CFD00EB800000EB80006E68B600B0FBF6F6FFF722FD00EB800000EB80000D
:2010E0006B689B00B0FBF3F0A7FB0030400908FB10684FEA081808F13208A7FB0837C7F337
:2011000043172B6827449F60A6E700BF003801401F85EB512DE9F04105460F4616469846B2
:20112000069C2B681B6837EA03030CBF01230023B3421DD1B4F1FF3FF3D02CB1FFF750F81A
:20114000A0EB0800A042ECD92A68D36823F4D073D3602A68536923F001035361202385F822
:20116000393085F83A30002385F83830032000E00020BDE8F08158B310B5044690F83930D3
:201180000BB3242384F839302268D36823F40053D3602046FFF7E8FE2268136923F49043D1
:2011A00013612268536923F02A0353612268D36843F40053D3600020E063202384F8393074
:2011C00084F83A3010BD80F8383000F09DFDD8E7012070472DE9F04182B01E4690F839308D
:2011E000DBB2202B55D104460D469046002955D0002A55D090F83830012B53D0012380F806
:2012000038300023C363212380F83930FEF7E8FF0746A4F82480A4F8268010E000963B4646
:20122000002280212046FFF775FF00283CD12B882268C3F3080353602369C3B90235E38C87
:201240009BB2B3B1E38C013B9BB2E384A368B3F5805FE3D000963B46002280212046FFF703
:2012600059FF18BB2A7823685A600135E7E70135E5E700963B46002240212046FFF74AFF17
:201280000346A8B9202284F83920002284F8382000E00223184602B0BDE8F0810123F9E768
:2012A0000123F7E70223F5E70323F3E70323F1E70323EFE700B9704730B587B00446002239
:2012C00001894068FFF715F90023039301230493022305932389029302A96068FFF718F8ED
:2012E000064B6D4693E8030085E803006423082229462068FFF76EFF07B030BDA02600087F
:2013000000B585B004AB03E90700BDF80C100298FFF7E8F805B05DF804FB000070B582B0A0
:2013200004460E46C820FEF761FF6420FEF75EFF94E80700FFF7E4FF0028F6D06D46074BAD
:2013400093E8030085E803008DF806606423082229462068FFF73EFF02B070BDA826000824
:2013600000B9704730B585B00446002281880068FFF7BFF80022A189A068FFF7BAF8012339
:201380000293019302230393A38804AD45F8103D29462068FEF7BCFFA38900932946A06826
:2013A000FEF7B6FF05B030BD04E000BF0133092BFBDD013808B10023F9E7704700B585B068
:2013C0000DF1100C0CE90F000122BDF804100098FFF78FF805B05DF804FB00B585B00DF1FD
:2013E000100C0CE90F000022BDF804100098FFF780F805B05DF804FB10B584B06C4684E8BC
:201400000F0094E80F00FFF7E8FF0520FFF7CCFF94E80F00FFF7D2FF0220FFF7C5FF94E8C5
:201420000F00FFF7DAFF04B010BD00B585B00DF1100C0CE90F000122BDF80C100298FFF7C1
:2014400058F805B05DF804FB00B585B00DF1100C0CE90F000022BDF80C100298FFF749F867
:2014600005B05DF804FB10B584B06C4684E80F0094E80F00FFF7A2FF94E80F00FFF7D5FFC6
:201480000220FFF791FF94E80F00FFF7DDFF04B010BD10B584B06C4684E80F0094E80F0015
:2014A000FFF79BFF0220FFF77FFF94E80F00FFF7CBFF0220FFF778FF94E80F00FFF77EFF2E
:2014C0000220FFF771FF94E80F00FFF7AEFF04B010BD30B585B004AC04E90F009DF820500A
:2014E000002412E004AB13E90F00FFF7ADFF0320FFF75AFF6D0804AB13E90F00FFF75EFF86
:201500000320FFF751FF0134E4B2072C0DD804AB13E90F00FFF761FF15F0010FE2D004ABF9
:2015200013E90F00FFF781FFE1E705B030BD0000002862D070B584B0044602B101220020CD
:2015400005E02E4BA3FB0131C9080130C0B2032819D82A4BA3FB0153DB0803EB83035D00B2
:201560004B1B0646264DEB5C04AD054405F8043C0228E6D1002AE4D004AD2E4463F07F0311
:2015800006F8043CDDE794E80F00FFF76CFF4023009394E80F00FFF79CFF94E80F00FFF7CA
:2015A0002BFF94E80F00FFF774FF94E80F00FFF75AFFC023009394E80F00FFF78AFF94E837
:2015C0000F00FFF719FF00250FE0C5F1030304AA134413F8043C009394E80F00FFF779FF42
:2015E00094E80F00FFF708FF0135032DEDDD94E80F00FFF74EFF04B070BD7047CDCCCCCC9C
:20160000B0260008D8B130B583B00D460446072900D9072594E80F00FFF725FF793DEDB27F
:20162000009594E80F00FFF754FF94E80F00FFF7E3FE94E80F00FFF72CFF03B030BD7047DC
:2016400010B588B0164B9A6942F020029A619A6902F020020192019A9A6942F004029A615F
:201660009A6902F004020292029A9A6942F008029A619B6903F008030393039B094C002258
:2016800001212046FEF735FF01230493059306930223079304A92046FEF73AFE08B010BD29
:2016A00000100240000C0140FEE7000000B591B0012206924FF480330793002108910A920F
:2016C00002220D920E934FF4E0130F9306A8FEF72DFF08BB0F230193022102910023039307
:2016E0004FF480620492059301A8FFF745F9C0B9FFF7FEF90D4BA3FB00308009FEF7DCFDD7
:201700000420FEF7EFFD002211464FF0FF30FEF793FD11B05DF804FB40F215110448FFF7A9
:20172000C3FF40F223110248FFF7BEFFD34D6210F82600082DE9F0418AB0FEF733FDFFF730
:20174000B5FFFFF77DFF00F047FA00F0A1FA00F0BDFABD4B07AD93E8070085E8070003AC9F
:201760000C330FCB84E80F00B84B9A6942F008029A619B6903F008030293029B2846FFF700
:2017800099FD01221146B248FEF7B3FE2046FFF7E7FD03212046FFF735FF012240F265618A
:2017A0002046FFF7C5FEAB4DAB4C05F130072E460FCE20606160A260E36035461034BE4258
:2017C000F5D130682060B388A380A34C2046FEF7BDFC642382B22146A048FFF7FBFC4FF490
:2017E000FA60FEF703FD00240AE00022214603A8FFF79EFE214607A8FFF790FD0134E4B262
:20180000102CF2D9944C964B03CB206061600022032103A8FFF78CFE2046FEF797FC8F4EB5
:20182000642382B221463046FFF7D4FC884D002201212846FEF75DFE0A20FEF7D7FC01225E
:2018400011462846FEF755FEBE20FEF7CFFC002201212846FEF74DFE0A20FEF7C7FC0122E6
:2018600011462846FEF745FEBE20FEF7BFFC002201212846FEF73DFE0A20FEF7B7FC012206
:2018800011462846FEF735FEBE20FEF7AFFC4FF47A70FEF7ABFC734B186820609A889B7920
:2018A000A280A3710022022103A8FFF741FE2046FEF74CFC642382B221463046FFF78AFC16
:2018C000002201212846FEF714FE0A20FEF78EFC012211462846FEF70CFEBE20FEF786FC6A
:2018E000002201212846FEF704FE0A20FEF77EFC012211462846FEF7FCFDBE20FEF776FC8B
:201900004FF47A70FEF772FC122107A8FFF706FD554B03CB206061600022012103A8FFF7C8
:2019200007FE2046FEF712FC642382B221463046FFF750FC002201212846FEF7DAFD0A20B7
:20194000FEF754FC012211462846FEF7D2FD474C2046FFF72BF92046FFF735F947E03C4E48
:20196000002201213046FEF7C4FD6420FEF73EFC012211463046FEF7BCFD4FF49670FEF768
:2019800035FC0134AC42EAD34FF49670FEF72EFC002412E02E4E002201213046FEF7A9FDE7
:2019A0000A20FEF723FC012211463046FEF7A1FD4FF49670FEF71AFC0134BC42EAD32C4AAC
:2019C000536801335360122B02D9134601225A6005F10D01C9B207A8FFF7A0FCF91DC9B2C6
:2019E00007A8FFF79BFC112107A8FFF797FC204B1B78DBB2012BFAD11D4B00241C705A68E5
:201A00001C4DA5FB0235AD0805EB45035F00D71B07EB87035E00DFF8408000962B46164971
:201A2000404600F015FA4046FEF790FB642382B241460A48FFF7CEFB0122642101FB0561BE
:201A400003A8FFF775FD9DE7C426000800100240000C014008270008A80000204C010020F2
:201A60004027000848270008502700080C0100208C000020ABAAAAAA5827000800B583B010
:201A8000244B9A6942F001029A619A6902F001020092009ADA6942F08052DA61DB6903F0C7
:201AA00080530193019B0320FEF7B4FB002211466FF00B00FEF7C0FB002211466FF00A00E7
:201AC000FEF7BAFB002211466FF00900FEF7B4FB002211466FF00400FEF7AEFB00221146E4
:201AE0006FF00300FEF7A8FB002211466FF00100FEF7A2FB002211464FF0FF30FEF79CFB0E
:201B0000054A536823F0E06343F00073536003B05DF804FB00100240000001407047FEE7D6
:201B2000FEE7FEE7FEE770477047704708B5FEF74BFBFEF7E8FB08BD08B5034B01221A7084
:201B40000248FFF7D5F808BD8C0000200C01002008B503460B4A126842B10A4A10680344FF
:201B60006A46934206D8074A136008BD054A06491160F2E700F042F90C2303604FF0FF3066
:201B8000F3E700BF94000020D00100200F4B1A6842F001021A6059680D4A0A405A601A68DE
:201BA00022F0847222F480321A601A6822F480221A605A6822F4FE025A604FF41F029A6037
:201BC000044B4FF000629A60704700BF001002400000FFF800ED00E000B587B019481A4BDD
:201BE000036044F24F6343600023836049F63F42C26003618361FFF773F998B906A94FF422
:201C0000805341F8103D0F48FEF7E9FF78B900230093019369460B48FFF77BF960B907B080
:201C20005DF804FB3F210948FFF73EFDE6E745210648FFF739FDEAE74C210448FFF734FD10
:201C4000EDE700BF0C010020000400407027000802680E4B9A4200D0704700B583B003F5DB
:201C60000333DA6942F00202DA61DB6903F002030193019B002211461D20FEF7DDFA1D204F
:201C8000FEF70EFB03B05DF804FB00BF0004004008B50B480B4B03604FF4E1334360002356
:201CA0008360C36003610C2242618361C361FFF762FA00B908BD43210348FFF7F5FCF9E79B
:201CC0004C010020003801408027000808B50B480B4B03604FF41653436000238360C3602E
:201CE00003610C2242618361C361FFF744FA00B908BD56210348FFF7D7FCF9E78C010020DD
:201D0000004400408027000810B586B00368244A934204D0234A934222D006B010BD224BEF
:201D20009A6942F480429A619B6903F480430093009B4FF4007302930223039303230593FD
:201D40001A4C02A92046FEF7E3FA4FF48063029300230393049302A92046FEF7D9FADCE793
:201D6000114BDA6942F40032DA61DB6903F400330193019B0423029302230393032305934E
:201D80000A4C02A92046FEF7C3FA0823029300230393049302A92046FEF7BAFABDE700BFFD
:201DA00000380140004400400010024000080140002103E00B4B5B58435004310A480B4B0E
:201DC00042189A42F6D30A4A02E0002342F8043B084B9A42F9D3FFF7D9FE00F015F8FFF777
:201DE000A9FC7047CC270008000000207000002070000020D0010020FEE70000014B1868AA
:201E0000704700BF0C00002070B500250C4E0D4CA41BA410A54209D100F02CFC00250A4E5A
:201E20000A4CA41BA410A54205D170BD56F8253098470135EEE756F8253098470135F2E7D1
:201E4000C4270008C4270008C4270008C82700080EB46FF0004100B59CB01DAB029006905F
:201E6000079104910848094953F8042B0591006802A9019300F066F80022029B1A701CB079
:201E80005DF804EB03B070470C0000200802FFFF2DE9F0478E6882469E420C46904699466E
:201EA00037D88A8912F4906F31D00223256809696F1A656905EB450595FBF3F509F10103CF
:201EC0003B449D4238BF1D46530530D5294600F037FB064650B90C234FF0FF30CAF8003078
:201EE000A38943F04003A381BDE8F0873A46216900F0B6FAA38923F4906343F08003A38146
:201F000026613E4426604E466561ED1BA5604E4500D94E4632464146206800F0ACFAA368A3
:201F200000209B1BA36023681E442660DCE72A4600F060FB06460028E2D12169504600F0A0
:201F4000B3FAC8E72DE9F04F1D468B899DB01F0680460C4616460FD50B696BB9402100F0A6
:201F6000EFFA2060206128B90C23C8F800304FF0FF30C8E0402363610023099320238DF8B3
:201F8000293030234FF0010B8DF82A30039537463D4615F8013B0BB1252B3ED1B7EB060ABD
:201FA0000BD05346324621464046FFF771FF013000F0A480099B534409933B78002B00F0F8
:201FC0009D8000234FF0FF32CDE90523049307938DF853301A932F46052217F8011B50482E
:201FE00000F030FA049BD0B9D90644BF20228DF853201A0744BF2B228DF853202A782A2A24
:020000040800F2
:2020000015D02F4600200A25079A394611F8013B303B092B4DD9B8B10FE02F46B8E7404AF7
:202020003D46801A0BFA00F018430490D3E7039A111D12680391002A01DB079204E05242F5
:2020400043F00203079204933B782E2B0CD17B782A2B33D1039B02371A1D1B680392002B92
:20206000B8BF4FF0FF3305932E4D03223978284600F0E8F938B14023401B03FA00F0049B1D
:202080000137034304933978062227487E1C8DF8281000F0D7F9002838D0244B13BB039BC1
:2020A000073323F0070308330393099B4B4409936DE705FB023201200F46A6E700230A254C
:2020C000194601370593384610F8012B303A092A03D9002BC8D00591C6E705FB012101235A
:2020E0000746F0E703AB00932246114B04A94046AFF30080B0F1FF3F8146D6D1A3895B0688
:202100003FF535AF09981DB0BDE8F08F03AB00932246074B04A9404600F082F8EAE700BFED
:2021200090270008962700089A27000800000000911E00082DE9F04791461F468A680B69AC
:2021400006469342B8BF1346C9F8003091F843200C46DDF8208012B10133C9F80030236877
:20216000990642BFD9F800300233C9F80030256815F0060507D104F1190AE368D9F80020CF
:202180009B1AAB4229DC94F843302268003318BF012392062ED404F1430239463046C04711
:2021A000013021D02368E56803F00603042B18BF0025D9F800204FF0000908BFAD1AA3682C
:2021C000226908BF25EAE5759342C4BF9B1AED181A344D451AD1002008E001235246394624
:2021E0003046C047013003D14FF0FF30BDE8F0870135C2E73020E11881F843005A1C94F8ED
:2022000045102244023382F84310C4E70123224639463046C0470130E6D009F10109D8E724
:202220002DE9F04301F1430C0C46097E85B06E291746064698460C9A00F0B38022D8632999
:2022400036D00AD8002900F0B980582900F0838004F1420584F8421032E0642901D06929C4
:20226000F6D120681368050603F104012AD51B681160002B03DA2D225B4284F843206F4813
:202280000A2239E0732900F09D8008D86F2920D07029DDD1236843F02003236003E07529BC
:2022A00017D07829D4D17823654884F8453055E0136804F14205191D1B68116084F84230B4
:2022C00001238CE01B6810F0400F116018BF1BB2CFE713682568181D1060280601D51B689D
:2022E00002E06806FBD51B886F2914BF0A2208225248002184F843106568002DA560C0F21F
:202300009580216821F004012160002B3DD1002D40F08E806546082A0BD12368DB0708D5E1
:20232000236962689A42DEBF302305F8013C05F1FF35ACEB05032361CDF800803B4603AA81
:2023400021463046FFF7F6FE01304DD14FF0FF3005B0BDE8F083394884F8451013682168D6
:202360001D1D1B6815600A060BD5CA0744BF41F0200121601BB9226822F02002226010224E
:20238000B7E74D0648BF9BB2EFE76546B3FBF2F102FB1133C35C05F8013D0B460029F5D10B
:2023A000B9E713682568181D6169106028061B6801D5196002E06A06FBD51980002365467D
:2023C0002361B9E71368191D11601D6862680021284600F037F808B1401B60606368236197
:2023E000002384F84330A7E723692A4639463046C0470130AAD023689B0713D4E068039BA0
:202400009842B8BF1846A3E701234A4639463046C04701309AD00135E368039A9B1AAB4278
:20242000F2DCEBE7002504F11909F5E7002BACD1037804F1420584F842306CE7A127000874
:20244000B227000810B5C9B202449042034601D1002303E01C7801308C42F6D1184610BD9D
:2024600010B5431E0A44914200D110BD11F8014B03F8014FF7E7884210B501EB020307D89A
:20248000421E99420AD011F8014B02F8014FF8E78342F5D98118D21AD34200D110BD13F8D3
:2024A000014D01F8014DF7E738B50546002943D051F8043C0C1F002BB8BFE41800F0D0F82B
:2024C0001E4A1368104633B9636014602846BDE8384000F0C6B8A3420BD921686218934206
:2024E00001BF1A685B685218226063600460EDE713465A680AB1A242FAD919685818A04290
:202500000BD120680144581882421960DED110685268014419605A60D8E702D90C232B60B8
:20252000D4E7206821188A4201BF116852680918216062605C60C9E738BD00BF9C00002020
:2025400070B5CD1C25F0030508350C2D38BF0C25002D064601DBA94203D90C2333600020B4
:2025600070BD00F07DF8214A1468214691B9204C23681BB9304600F063F820602946304640
:2025800000F05EF8431C24D10C233046336000F068F8E4E70B685B1B18D40B2B0FD90B60F0
:2025A000CC18CD50304600F05CF804F10B00231D20F00700C31AD3D05A42E250D0E74B6851
:2025C0008C4216BF636013600C46EBE70C464968CCE7C41C24F00304A04205D0211A3046E5
:2025E00000F02EF80130CFD02560DBE79C000020A0000020F8B5074614460E4621B9BDE80B
:20260000F8401146FFF79CBF22B9FFF74DFF25462846F8BD00F026F8A0420FD22146384679
:20262000FFF78EFF05460028F2D031462246FFF717FF31463846FFF737FFE9E73546E7E7BD
:2026400038B50023054C054608462360FFF780FA431C02D1236803B12B6038BDCC010020AF
:202660007047704751F8043C181F002BBCBF0B58C0187047F8B500BFF8BC08BC9E46704715
:20268000F8B500BFF8BC08BC9E46704702030405060708090A0B0C0D0E0F10100102000021
:1C26A0007EFF0609000002EF7EFF0603000000EF3F065B4F666D7D077F6F777C05
:00000001FF
